:020000040000fa
:080000000002040000000000f2
:020000040000fa
:10000800d0020000d0020000d0020000d0020000a0
:10001800d0020000d0020000d0020000d002000090
:10002800d0020000d0490000d00200007462000035
:1000380024570000204a0000d0020000d00200002f
:10004800d0020000d0020000d0020000e8540000f6
:10005800b0540000d0020000d0020000d00200001e
:10006800d0020000d0020000d0020000d002000040
:10007800d0020000d0020000b04b0000d002000007
:10008800d0020000d0020000d0020000025d000093
:100098009c620000d00200001c560000e4550000dd
:1000a800d0020000d8600000d0020000d00200009a
:1000b800d0020000704a0000c04a0000104b000047
:1000c800604b0000d0020000d0020000d002000007
:1000d800d0020000d0020000d0020000ba62000086
:1000e800f8620000d0020000d0020000d002000038
:1000f800d0020000de640000d0020000d002000040
:10010800d0020000d0020000d0020000d00200009f
:10011800d0020000d0020000d0020000d00200008f
:10012800d0020000d0020000d0020000d00200007f
:10013800d0020000d0020000d0020000d00200006f
:10014800d0020000d0020000d0020000d00200005f
:10015800d0020000d0020000d0020000d00200004f
:10016800d0020000d0020000d0020000d00200003f
:10017800d0020000d0020000d0020000d00200002f
:10018800d0020000d0020000d0020000d00200001f
:10019800d0020000d0020000d0020000d00200000f
:1001a800d0020000d0020000d0020000d0020000ff
:1001b800d0020000d0020000d0020000d0020000ef
:1001c800d0020000d0020000d0020000d0020000df
:1001d800d0020000d0020000d0020000d0020000cf
:1001e800d0020000d0020000d0020000d0020000bf
:0801f800d0020000d00200005b
:020000040000fa
:10020800d0020000d0020000d0020000d00200009e
:10021800d0020000d0020000d0020000d00200008e
:10022800d0020000d0490000d00200007462000033
:1002380024570000204a0000d0020000d00200002d
:10024800d0020000d0020000d0020000e8540000f4
:10025800b0540000d0020000d0020000d00200001c
:10026800d0020000d0020000d0020000d00200003e
:10027800d0020000d0020000b04b0000d002000005
:10028800d0020000d0020000d0020000025d000091
:100298009c620000d00200001c560000e4550000db
:1002a800d0020000d8600000d0020000d002000098
:1002b800d0020000704a0000c04a0000104b000045
:1002c800604b0000d0020000d0020000d002000005
:1002d800d0020000d0020000d0020000ba62000084
:1002e800f8620000d0020000d0020000d002000036
:1002f800d0020000de640000d0020000d00200003e
:10030800d0020000d0020000d0020000d00200009d
:10031800d0020000d0020000d0020000d00200008d
:10032800d0020000d0020000d0020000d00200007d
:10033800d0020000d0020000d0020000d00200006d
:10034800d0020000d0020000d0020000d00200005d
:10035800d0020000d0020000d0020000d00200004d
:10036800d0020000d0020000d0020000d00200003d
:10037800d0020000d0020000d0020000d00200002d
:10038800d0020000d0020000d0020000d00200001d
:10039800d0020000d0020000d0020000d00200000d
:1003a800d0020000d0020000d0020000d0020000fd
:1003b800d0020000d0020000d0020000d0020000ed
:1003c800d0020000d0020000d0020000d0020000dd
:1003d800d0020000d0020000d0020000d0020000cd
:1003e800d0020000d0020000d0020000d0020000bd
:0803f800d0020000d002000059
:020000040000fa
:100400000ff820000efb27000e01880000000000fe
:100410000c00070000c024000100200011000700ac
:10042000000020000000e000020032000000020096
:1004300000000000722e0200000000000040da0000
:100440000000fe004440a900404d20000000e000f4
:100450000300320000002000a00188004440a800f2
:100460000000060091018800800078000000eb0089
:1004700015003700e280400032a0b4009101ba00bc
:10048000e280400032a0b4009102ba00e280400055
:1004900032a0b4000002eb00472bde00f507b200eb
:1004a000602ce10004003a000059eb008301e900f0
:1004b000fdff3e00040037006128e100010032002a
:1004c0000082eb00040007001101ba000200e00006
:1004d000e8ff3a00000006003159ba008301e90044
:1004e0000c0032002159ba008301e90008003200f3
:1004f0000400e00003003a00e280400032a0b400b3
:10050000f5ff370011d9ba008301e900faff3a007c
:100510008100e800e180400032a0b4000000060045
:100520001a45040000000000bc5e0400000000004a
:10053000da5e040000000000a85e04000000000075
:10054000ea5e040000000000005f040000000000fc
:100550003a5f040000000000825f04000000000019
:10056000aa5f040000000000a26404000000000074
:100570009a60040000000000a46504000000000070
:10058000d40204000000000000030400000000008a
:100590002021040000000000000004000000000012
:1005a0000040da000000fe00889fbe0000047800d2
:1005b0000100780082047800880178000901780041
:1005c00011002000dd0b0700890f500001003200f0
:1005d0000004eb00080078004f04be000000060095
:1005e0000000fa00e88157004fb99700c1d82000f9
:1005f000402d2000180007000080fa0000000600cf
:10060000881f78000204780008017800b10b070009
:10061000080040004f047800000006000000fa00c7
:10062000881f780000047800ea8157003fb99700de
:10063000880078000030200007000700e00f50001d
:10064000020035000041eb00027478004f0478008e
:100650000080fa00000006004f06b000889fbe0030
:100660008a9fbe008c9fbe008e1f78008005780098
:1006700001057800820478008300780000f92f00db
:100680000f0040009b0e070028f92f000f044400c4
:100690004b0498005a0498000000eb00600c98008e
:1006a000aee72000ede62000fcff270019407800af
:1006b0008085fb000b05fb008b05ea00cf5dde00ab
:1006c00050022000800f55000d003200e18f5500d0
:1006d0000b003a00c80190000b01780089007800f7
:1006e000580090000300010050049800e00f5000f3
:1006f0008b003200680890000000e800600c980051
:100700008b84440050022000800f5500040032000a
:10071000e00f5500e5ff3a007f9097008100370019
:100720000000eb00400c9800300c9800200c980062
:10073000100c9800000c98007004980000149800a9
:10074000070037000e005000000040006d007800e8
:100750008810900001007000001498008904e800df
:10076000194578008a00fb00a0e72000e50b070090
:10077000e00f5000f3ff3a00a1c2b300814f5500d3
:100780000e003a008f8897000180e900808f9f005b
:1007900010007800700c9800e00f500005003d003c
:1007a0000000ea00700c9800081090000020a000e3
:1007b000001498008904e8000f003700700c9800be
:1007c00008003700780890008c0f500004003200b9
:1007d0006a00b9000003b10002004000700c9800ec
:1007e0008904e8001901fb0000fd2f000200400011
:1007f000e90f5000f3ff3600e0c2b300994f10003c
:10080000030032000080eb00500c98001a00370003
:10081000a0c2b300d94f100007003a008f8897009c
:100820000180e900808f9f0010007800500c980034
:100830008904e800100037000000eb00500c98001d
:1008400008003700580890008c0f50000400320058
:100850006a00b9000003b10002004000500c98008b
:100860008904e8001901fb0000fd2f000200400090
:10087000e90f5000f3ff3600194578008a00fb00ad
:1008800060e620009f0b0700e00f500002003200de
:100890008904e80001003700004578002a649800c8
:1008a00080c6b300804f550004003a00994f1500f0
:1008b0000a003a006640500006003700c0c6b30088
:1008c000804f550005003a00994f150003003a008b
:1008d00065404000206498008904e8001901fb008d
:1008e00063fb2f008f81410001f92f008f804000b2
:1008f0000800780011000700e00f500008003a00df
:1009000061fb2f008f804000080078003d0d07003c
:10091000e00f5000020035008904e80063ff370053
:100920000080eb004f0778004f06be004f05be0069
:100930004f04be004f06b10000000600889fbe00b5
:100940008a1f78000004780082447800030578004c
:1009500070c6b30080cf540021003c0000c0e90005
:1009600080cf5400d7003d007240500080cf54002b
:10097000430132000d003c006c40500080cf540019
:1009800056013c0000c0e90080cf5400cd003d007e
:1009900050c2b30080cf54004d0132007c40400073
:1009a00080cf54004d013a00c600370010c6b30096
:1009b00080cf5400c300320004003c006940500066
:1009c00080cf540045013a006c00370030c6b300b8
:1009d00080cf5400180032000040e80009003700c2
:1009e00000c7b30080cf54001601320008003c005d
:1009f00000c0e90080cf5400db0032005f003c0003
:100a00006540500080cf540034013a000f00370099
:100a100050c7b30080cf54005800320063404000fc
:100a200080cf5400550032006540500080cf540004
:100a30002a013a00120137001181e900820878008a
:100a400078009000127578002a0137002860900025
:100a5000c2c6b300824f500009003a00110078006e
:100a600064025000840878001400be001402900054
:100a70004fa2de00040178008401780012003700e4
:100a800012c7b300824f500003003200a2c6b30069
:100a9000824f500006003a001101780068005100b2
:100aa000800878005001be004000be0006003700fc
:100ab0001180e9008008780010007800cf80de0007
:100ac0000101780082017800009cbe000294be0003
:100ad0002862900085c6b300854f52000e00320098
:100ae00025c6b300854f520005003a000000fb0008
:100af000cf80de0001017800820178000900370014
:100b000045c7b300854f520003003200e6c24200e1
:100b1000854f520005003a00cf80de0001017800c9
:100b200082017800009cbe000294be003802be0024
:100b30002803be0078009000d1c2b300e00f52003d
:100b4000e08f5a00e00f5b00e08f5b00080035008b
:100b5000881090006281600002003200b1c2b300d0
:100b600003003700e18060005100320001c2b30091
:100b7000017578000000e8004c0037002860900004
:100b8000c2c6b300824f500007003a00110078003f
:100b900064025000840878001400be000001eb00dd
:100ba000820178001200370012c7b300824f500054
:100bb00003003200a2c6b300824f500006003a0084
:100bc0001101780068005100800878005001be00d3
:100bd0004000be00060037001180e9008008780060
:100be0001000780001002000020020000300200017
:100bf000009cbe000294be002862900085c6b3002f
:100c0000854f52000e00320025c6b300854f5200ba
:100c100005003a000080fb000100200002002000d7
:100c2000030020000900370045c7b300854f52007c
:100c300003003200e6c24200854f520005003a0030
:100c4000010020000200200003002000009cbe00e4
:100c50000294be000810900068006000140032008a
:100c60003800be002801be00e00f5000e08f5800a1
:100c7000e00f5900e08f59000d00320080c7b3002b
:100c800080cf54000300320080c5b30080cf5400f1
:100c900007003a00f800900000c3b30000f57800a8
:100ca0000100e800097578000180e80070049800f0
:100cb00078009000000545006a049800894078009b
:100cc0006c00370028619000c0c4b300804f510011
:100cd00006003a0011017800680051008008780091
:100ce0005001be004000be00050037001101780031
:100cf00064005100800878001000be00a00f0700bb
:100d0000009cbe000294be00b800900078009000e5
:100d1000e08f500002003d00d1c2b3000800370050
:100d2000881090006281600002003200b1c2b300fe
:100d300003003700e18060000400320001c2b3000c
:100d4000017578000000e8007004980078009000b9
:100d5000000545006a0498008900fb00080078003f
:100d60006a0007006500370028609000c3c6b30022
:100d70001181e900834f5000260032000a003c0038
:100d8000e4c15100834f50001f00320083c1e800ce
:100d9000834f500013003200e8c15100834f5000d0
:100da00022003a000a00370043c7b300834f5000c7
:100db00015003200e6c14100834f5000120032009e
:100dc000e9c15100834f500018003a000500370078
:100dd0008208780012007800485c9000084878008b
:100de00046003700820878001202780068089000f8
:100df000cf80de000101780082017800009abe00f9
:100e00000292be003d003700820878001200780090
:100e10000900370082087800120178006808900005
:100e2000cf80de000089be00340037001180e90069
:100e30008008780010007800680c9000080878009e
:100e40002e0037001180e90080087800100078003b
:100e5000cf80de000101780082017800009cbe0096
:100e60000294be0078009000000545006a049800d6
:100e700081c7b300080078009c0a07001f003700f4
:100e80001180e90080087800100578006a04980055
:100e9000d80c9000e08f540004003d000a00780058
:100ea00093090700800478000700370009017800e3
:100eb0008000eb000a007800090a0700e00f5000ec
:100ec000010032008a045000190c98000b00370012
:100ed00078009000097578000600370078009000cf
:100ee00000054500e0cf540001003a0059c2b300ac
:100ef000094d78000000e800700498000000eb0045
:100f00004f0578004f04be0000000600ef03b0005c
:100f1000889fbe008a9fbe008c9fbe008e1f7800f7
:100f200000057800014778003a00be002a01be00a3
:100f3000d0b79f00e1b79f00f2b79f0083bf9f002b
:100f40005a089000e00f500002003d0060002000b1
:100f5000500d98008a00780060fb2f000f004000c1
:100f6000380a070080017800e28f510009003a003a
:100f700030002000100d9800b0c9b30000474700b2
:100f800000df2000e14f57000c003e00c0de2000d3
:100f90000a003700e08f51000e00340030002000be
:100fa000100d9800b0c9b3000047470080df200053
:100fb000e14f570001003e0040df2000ea009000b2
:100fc000b0487800b06878001040780090409800f1
:100fd00002013700e08f510004003a0062fb2f004d
:100fe0000f01410003197800f80037006022b800b3
:100ff0006033b8005fb09700efb097007fb1970003
:101000008fb99700350e0700e00f500009003d0032
:101010005fb29700efb297007fb397008fbb970046
:1010200007f0a200d4b79f00e5b79f00f6b79f0076
:1010300087bf9f003f9a9700cfa2de00725927001a
:10104000030020000400be00920f0700026a28007f
:10105000130020000d05070064015000b29f9f009f
:1010600018003b0063011100c0ff2f000004610065
:101070008802ea00b59f9f000006eb00cddf20004c
:101080005fb09700efb097007fb197008fb99700de
:101090000900370061026400050032004362dd0090
:1010a000048246005403be004402be00020f070043
:1010b0000884d1000c06e800e00f5400f5ff3c0066
:1010c0001f003700e00f510023003200c8ff2f003f
:1010d00008046100b89f9f006022b800060020004d
:1010e00007ff23000006eb00cddf20000400be0058
:1010f0000601be00090037006102640005003200ed
:101100004362dd00048246005403be004402be0078
:10111000e90e07000884d1000c06e800e00f540037
:10112000f5ff3c000002be000203be005fb0970066
:10113000efb097007fb197008fb99700f10d0700ce
:101140000002be000203be00d4b79f00e5b79f00b7
:10115000f6b79f0087bf9f005a09900060c6b30092
:10116000804f5700040032006100200060c4b300cb
:10117000804f570002003a00bf9a9700ea80420071
:1011800082814000f38f51000100340033012000c0
:1011900002c3b300827f9f009dfb2f008f86460015
:1011a000824578000e43780086ef9f0003077800a1
:1011b000350037005fb09700efb097007fb1970020
:1011c0008fb997008d0e07000004be006807570016
:1011d0004240a90012003400b40e07000002be0015
:1011e0000203be005fb09700efb097007fb1970099
:1011f0008fb99700250f07006022b80046782d00b0
:1012000077192400ac0e07000002be000203be00e6
:10121000d4b79f00e5b79f00f6b79f0087bf9f0038
:10122000e88646008c0020000801be000c00370054
:10123000a40020000500200000fe2f000f00400049
:10124000120907000fb097009fb097002fb19700c9
:10125000bfb1970005c3b300856641000001be0021
:10126000e00f5100e08f5900040034000c06e90043
:10127000efff3b00010037008b6678000c06e900a9
:10128000fdff3b00e8864600e00f57000a003400ef
:101290006022b8006033b8005fb09700efb09700ed
:1012a0007fb197008fb99700910d070080007800fb
:1012b000e08f5000bfff3c000fef970092fb2f0024
:1012c0000f014100828256003f9b97006703430055
:1012d000b69f9f0000c3b300050037008502e900f8
:1012e000bf9b97008703e900b79f9f000201e800ba
:1012f000924f1000f9ff3200da08900060c6b30088
:10130000804f57000300320060c4b300804f570085
:1013100003003a003f9897008001e8000900370079
:101320001300200050c6b300804f57000500320064
:101330000e40780050c4b2008081fb008301e900b8
:10134000cf19de0081814100858f510001003400fa
:1013500085017800e08f51001c00350004c3b30004
:10136000858f510006003d00e2c0790069424200cd
:1013700040c3b30080cf500001003c0069425200de
:1013800083027800010037008301e9008502e9004b
:101390008500410011437800844f5300faff32006a
:1013a00090c3b300804f520001003a008648e80025
:1013b000e08f520005003d000201e9008301e800d2
:1013c000bf9897008100e800b19f9f008e00fb004e
:1013d0003f9a97000a007800060007004f07780040
:1013e0004f06be004f05be004f04be00ef03b10024
:1013f000000006000e00fa00889fbe008a9fbe0013
:101400008c9fbe00000478008144780002067800ba
:101410000305780084057800e00f550002003c00c9
:101420001a0020008cfd270060c6b30080cf540056
:101430000e00320060c4b30080cf54000b003200b5
:1014400070c6b30080cf54000300320070c4b300f4
:1014500080cf540081003a00e48f45007f003500c2
:1014600058089000808f55007c003d008b05e800f7
:1014700060c6b30080cf54001000320060c4b300d7
:1014800080cf54000d00320008109000680060000a
:1014900004003a0058089000800f550001003d00fc
:1014a0005a0c9800580890000b005000500c9800ff
:1014b00002003b000000eb00500c98001808900060
:1014c000e8009000e08f550026003c0002c3b30006
:1014d000827078000000e800100c9800d808900096
:1014e000e08f500003003c0088109000e88060000e
:1014f0000500320068019000e1c2b300017178007c
:101500000000e800100c9800580890008b00ea00da
:10151000810f500001003d008005ea008b00ea00c9
:10152000210c9800808545005b0c98008a8f55003f
:10153000010034008a0578003b0c9800e800900018
:1015400018089000008040000b0178008c007800a3
:10155000e0070700580890008b0550004b0c9800de
:10156000910037008b0f550018003d0000804000af
:101570000a0178008c007800d607070098089000d0
:1015800081004500110c98000a8555002a0c98002e
:1015900058089000e00f500003003c000810900035
:1015a000680060000600320068019000e0c2b300ed
:1015b00000f17800380890000000e800300c980036
:1015c00058089000400c98007700370000804000d9
:1015d0000b0178008c007800be0707001808900007
:1015e00000804500100c98000b055500d8089000ad
:1015f000e08f500003003c0088109000e8806000fd
:101600000500320068019000e1c2b300017178006a
:101610000000e800100c980058089000800f55005a
:101620000100340000057800e800900018089000e0
:10163000008040008b0046000a017800a5070700e3
:10164000180890000a004000100c980058089000fc
:101650000a0550002a0c9800530037001808900023
:10166000e80090009c7078000000e800100c9800e2
:10167000d8089000e08f500003003c0088109000d4
:10168000e88060000500320068019000e1c2b3000c
:10169000017178000000e800100c980058089000d4
:1016a000e00f5000100034000a05e900800f5500db
:1016b0000100340000057800e80090001808900050
:1016c000008040008c00e8000a01780081070700d4
:1016d000180890000a004000100c9800580890006c
:1016e0000a0550002a0c9800e800900018089000a5
:1016f00000804000095878008006e800e08f55001f
:1017000004003500b1c2b300014878000d0678002e
:1017100004003700d1c2b300014878000d067800fc
:101720008b05ea008004eb000b003700a2002000cc
:101730008b00780070805700750707000fbd970079
:101740009fbd97008b4078007a80570001f07c00a5
:101750008904e8008a057800e08f5500f3ff3c001b
:10176000e08f540009003a000d06780000c3b30072
:10177000005e7800050037008904e9007a8157008f
:101780000900410001c3b30010de4000e08f5400a7
:10179000f9ff3a00e800900018089000008040002f
:1017a000000656003c0c9800081090007400600081
:1017b000f00f50000e003a0098089000780090005a
:1017c00000804000a808900001004000b808900088
:1017d00001004000c808900001004000f808900097
:1017e000810f500002003d0000805000000c980066
:1017f0004f06be004f05be004f04be000080fa0039
:10180000000006000000df00000006000080cf009e
:10181000000006002200f8002400f8002600f8006e
:101820000100b8000000e9004400f800010f2000aa
:1018300021028800820078003800f8003a00f800a1
:101840003c00f8003e00f8004000f800008008006e
:1018500004000000b30278000500ca00b40278005a
:101860000500c9003200cc004000f9003e00f9003c
:101870003c00f9003a00f9003800f9000100780056
:101880004400f9002600f9002400f9002200f900c4
:10189000000006002200f8002400f8002600f800ee
:1018a000889fbe008a9fbe008c9fbe004400f80047
:1018b0000d0f20002d028800830678000106e90044
:1018c0008205e90081804000020141000000e9003a
:1018d00024003500050578003800f8003a00f800cb
:1018e0003c00f8003e00f8004000f8000b800800c3
:1018f00014000000040478008a0478001201c30078
:101900003800f8003a00f8003c00f8003e00f8000b
:101910004000f8000c800800030000003803780045
:10192000990378001201c600828444004000f90047
:101930003e00f9003c00f9003a00f9003800f900d7
:101940003300cd000a85e8004000f9003e00f900b0
:101950003c00f9003a00f9003800f90001024200a9
:10196000daff37000d0078004400f9004f06be0092
:101970004f05be004f04be002600f9002400f90008
:101980002200f900000006002200f8002400f80000
:101990002600f8004400f800050f2000250288000a
:1019a0000100b8000000e900820078003800f8006b
:1019b0003a00f8003c00f8003e00f8004000f80053
:1019c0000080080002000000b30278001301c0008c
:1019d0003200cd004000f9003e00f9003c00f90063
:1019e0003a00f9003800f900010078004400f900dd
:1019f0002600f9002400f9002200f900000006008a
:101a00002200f8002400f8002600f8002800f80062
:101a10002a00f8002c00f8000100b8000000e900de
:101a20004400f800010f20002102880082007800a5
:101a30003800f8003a00f8003c00f8003e00f800da
:101a40004000f8000080080005000000b3027800a4
:101a50000500ca00b40278000580ca000030cb003f
:101a60003200cc004000f9003e00f9003c00f900d3
:101a70003a00f9003800f900010078004400f9004c
:101a80002c00f9002a00f9002800f9002600f900ce
:101a90002400f9002200f90000000600820278000c
:101aa0000000e9000102e900818040003800f800f0
:101ab0003a00f8003c00f8003e00f8004000f80052
:101ac0000480080011000000030278003800f800cc
:101ad0003a00f8003c00f8003e00f8004000f80032
:101ae0000080080001000000141978000102420083
:101af0004000f9003e00f9003c00f9003a00f9000e
:101b00003800f900000000008381e80000000000b8
:101b10004000f9003e00f9003c00f9003a00f900ed
:101b20003800f90005007800000006002200f800e7
:101b30002400f8002600f8004400f800040f2000fc
:101b400024028800010278000000e9003800f80053
:101b50003a00f8003c00f8003e00f8004000f800b1
:101b60000080080004000000b20278000500ca00ee
:101b7000b30278000500c9003100cc004000f90034
:101b80003e00f9003c00f9003a00f9003800f90085
:101b9000040078004400f9002600f9002400f90050
:101ba0002200f900000006002200f8002400f800de
:101bb0002600f800889fbe008a1f78004400f800c5
:101bc000070f200027028800821f78008103e900a8
:101bd0000005eb003800f8003a00f8003c00f8007f
:101be0003e00f8004000f8000780080014000000e4
:101bf00003047800840478001201c3003800f80060
:101c00003a00f8003c00f8003e00f8004000f80000
:101c10000a80080002000000b8027800290378005a
:101c20001201c4004000f9003e00f9003c00f90038
:101c30003a00f9003800f9003200cd000482e800d3
:101c40000a05e8004000f9003e00f9003c00f900f8
:101c50003a00f9003800f9000482e9008381e800c5
:101c600001055000210034000a05e9003800f800a1
:101c70003a00f8003c00f8003e00f8004000f80090
:101c80000a80080013000000030478008404780030
:101c90001201c3003800f8003a00f8003c00f800d8
:101ca0003e00f8004000f800078008000200000035
:101cb000b8027800290378001201c4004000f9003e
:101cc0003e00f9003c00f9003a00f9003800f90044
:101cd0003200cd008381e8004000f9003e00f900a9
:101ce0003c00f9003a00f9003800f9008703e900e8
:101cf000210035003800f8003a00f8003c00f800f8
:101d00003e00f8004000f8000780080014000000c2
:101d100003047800840478001201c3003800f8003e
:101d20003a00f8003c00f8003e00f8004000f800df
:101d30000780080002000000b8027800290378003c
:101d40001201c4004000f9003e00f9003c00f90017
:101d50003a00f9003800f9003200cd008381e80034
:101d60008703e9004000f9003e00f9003c00f9005b
:101d70003a00f9003800f9004f0078004400f900fb
:101d80004f0578004f04be002600f9002400f9003a
:101d90002200f900000006003600f80081017800fa
:101da0000000e90000800900b21878000300780004
:101db0003600f90000000600840378008102e90083
:101dc0008502d000050342008102d1008502e900ae
:101dd0003800f8003a00f8003c00f8003e00f80037
:101de0004000f8000580080002000000960278001c
:101df00017137800851b78004000f9003e00f900b9
:101e00003c00f9003a00f9003800f900d40d020056
:101e100000000000000006002200f8002400f80086
:101e20002600f8004400f800040f20002402880077
:101e30000000e9001201c3003800f8003a00f80081
:101e40003c00f8003e00f8004000f8000080080068
:101e50000200000031027800b20278001201c000d6
:101e60004000f9003e00f9003c00f9003a00f9009a
:101e70003800f9000000cd004400f9002600f90008
:101e80002400f9002200f90000000600b1027800e9
:101e90000009eb000002e90007003400b1017800fe
:101ea0000328e10002003c0083027800040950008e
:101eb0000402e900f9ff3c0005007800000006007c
:101ec000b10278000009eb000002e90007003400cd
:101ed000b10178000328e100020035008302780098
:101ee000040950000402e900f9ff3c0005007800f5
:101ef000000006002200f8002400f8002600f80088
:101f00004400f800040f200024028800811f78009c
:101f10000000e9003800f8003a00f8003c00f80042
:101f20003e00f8004000f8000080080003000000b8
:101f300032027800b30278001301c0003100cd00f6
:101f40004000f9003e00f9003c00f9003a00f900b9
:101f50003800f9004f0078004400f9002600f9002d
:101f60002400f9002200f900000006002200f80019
:101f70002400f8002600f8004400f800030f2000b9
:101f800023028800810178000000e9000400280095
:101f90001201c3003800f8003a00f8003c00f800d5
:101fa0003e00f8004000f800008008000300000038
:101fb000b20278001201c0003100cc001201c3004f
:101fc0004000f9003e00f9003c00f9003a00f90039
:101fd0003800f900030078004400f9002600f900f9
:101fe0002400f9002200f900000006002200f80099
:101ff0002400f8002600f8004400f800020f20003a
:10200000220288000000e9001201c3003800f80035
:102010003a00f8003c00f8003e00f8004000f800ec
:102020000080080001000000310278001001f0007b
:102030004000f9003e00f9003c00f9003a00f900c8
:102040003800f9000000cd004400f9002600f90036
:102050002400f9002200f900000006002200f80028
:102060002400f8002600f8004400f800040f2000c7
:1020700024028800811f78000000e9000302780034
:102080003800f8003a00f8003c00f8003e00f80084
:102090004000f8000080080002000000b202780052
:1020a0001301c0003100cd004000f9003e00f900ee
:1020b0003c00f9003a00f9003800f9004f007800c0
:1020c0004400f9002600f9002400f9002200f9007c
:1020d000000006002200f8002400f8002600f800a6
:1020e0002800f8002a00f8002c00f8004400f8004e
:1020f000040f200024028800010278000000e9009b
:102100003800f8003a00f8003c00f8003e00f80003
:102110004000f8000080080005000000b2027800ce
:102120000500ca00b30278000580ca000030cb0069
:102130003100cc004000f9003e00f9003c00f900fd
:102140003a00f9003800f900040078004400f90072
:102150002c00f9002a00f9002800f9002600f900f7
:102160002400f9002200f900000006003600f80003
:10217000020378000002d0008102e90082007800aa
:1021800003017800cc0e02000000000004004000b3
:102190000100200005800900011878000600780081
:1021a0003600f900000006009820a90061e2a900ad
:1021b0008820a900000006008820a90067016000af
:1021c0004411dd00a3058000f1f82f00818061003b
:1021d00082807000a1058800680060004300de0076
:1021e0006100600080004000c00480000010a10079
:1021f00001007000c0048800000006001013880071
:1022000021138800021388000000060003f0a200da
:10221000889fbe008a9fbe008c1f7800fe000700ca
:10222000050133006450e1004f0032006420e100fa
:102230005200320003826c0007003b000905d00009
:102240000306d000820f54000c065d000200390026
:10225000020032008901780003067800858255006b
:1022600004003d000003fd008103fd008502ea003b
:102270008b854200840f720002003b00600010005a
:10228000e08018006011b8000005eb007a28e1003a
:102290000a00390006007800c75ddd00f707b200cc
:1022a000878075002d003700828171000a01780057
:1022b000610560008180d1000080d3008502e900c3
:1022c000f9ff3b00060440008784480002003b0001
:1022d00060041400e0841c000988a3000700320099
:1022e0008a81710082817100610164008904d100da
:1022f0000884d3008b05e800170037000978a30095
:1023000013003a000b00e000130034008b05e900d5
:102310000804440089844c000a4474000978a3002e
:102320000d003a000b00e000070034008b05e900c7
:102330000804440089844c0001003a000b0020008e
:102340000978a300f7ff32000001eb00020037001c
:10235000828171000a017800890007000cf0a70053
:1023600001f0a000bd0037006420e10002003a0047
:10237000838f6c00bd0033000801be000200be0068
:10238000b6003700889fbe008a9fbe008c1f780071
:10239000a1000700a800330003866c006450e10030
:1023a0002e0032006420e100330032006150e10071
:1023b0002f0032006120e100310032008585550098
:1023c000eb07b000090020000804200005003700da
:1023d0000804440089844c000a00310006034300cd
:1023e00087834b000001530081815b00f8ff3300bd
:1023f0000203be000800a0000804440089844c00c9
:10240000f6ff3900c639dd00830173000100320098
:10241000130020008904d1000884d3000998a30088
:10242000050032000800a7000300a0008904d100c5
:102430000884d3008b05e8008904d1000884d30008
:102440000001eb000281d2004d00070001f0a10065
:102450000cf0a70001f0a000800037006420e1002c
:10246000820032000801be000200be00f7ff370004
:102470006120e1007d0032006000b800f3ff37000a
:102480000000200001f82700f0ff3700839f68005c
:102490000100e00002003d0060001000e080180034
:1024a0000300e00002003d0060011100e08119001e
:1024b000630107004f00e00002003b0060001000d5
:1024c000e080180000000600881f780001047800f2
:1024d0000100e00005003d0060001000e0801800f1
:1024e00002003b0001f02c0003003700040007004d
:1024f00008f0a70001f0a0004f04780000000600db
:10250000889fbe008a9fbe00010578000000e000a1
:10251000180032000004be006011b8006b092000f2
:102520000982cf00020039000882cf000441b000c8
:10253000694252000e00320008003b0082817100a7
:10254000610164008904d1000884d3008b05e80090
:102550000442e800f9ff3a0005003700080444008f
:1025600089844c008b05e9000442e900fbff3a0036
:10257000030007004f05be004f04be000000060028
:1025800081002000618055000b003d000b00200001
:1025900061fe2f000100e1001d0034008281710006
:1025a000610164008904d1000884d3000000e800c0
:1025b000faff3a007100200061006400030070001f
:1025c000020060000900320061044400e0844c0015
:1025d0000988a500050032008b05e8006808e100c5
:1025e00002003a008904d1000884d300f20f2000d1
:1025f0000258e10005003d00c75ddd00f907b200ab
:102600008980750008007800000006000bf827009c
:102610008b007800000005000004be00d002070017
:102620000003be000405be000200be00cc0207008d
:10263000844f7500000006000200be006450e100f7
:10264000050036006420e100020036000968a3009e
:1026500001003a000800be000160a0004f067800ab
:102660004f05be004f04be0000000600f0ff2f0023
:10267000f1ff2700f9ff3700811f78000100e0001b
:1026800002003d0060001000e08018000300e00040
:1026900002003d0060011100e0811900f800070010
:1026a0004f00e00002003b0060001000e0801800d6
:1026b000000006000c00fa00889fbe008a9fbe0042
:1026c0008c9fbe00d4ff07000206be008405780080
:1026d0000200be00020020005502070005003a007b
:1026e0008b02b300120020005102070001003a00e3
:1026f000f8856d000c01be00c60007000800be0092
:102700009b0032000b08a3009e003a000df0a700ca
:102710000be0a00009f0a7000bf0a00009f0a10059
:102720000801be00bb0007000bf0a60095003200b8
:1027300001003c000bd0a0008acf7500b20033002e
:102740006000b8006250e10099003900a1003e002d
:102750000b28a300a2003a000bf8a30006003200e9
:102760000b58a300a70032000801be00a900070013
:102770000800be00940032000800be00bd01070042
:102780000004be00050578000bf0a7000b30a60082
:102790000bf0a1005b079800324f200053f3230099
:1027a0004a02070005003d000800be00120020009c
:1027b000800207000004be000a05e9004a079800ed
:1027c0006150b90040ff0700008fbe000c01be0041
:1027d000f102070041020700300798000100e00005
:1027e00002003d0060001000e0801800f2ff2700aa
:1027f000820f5000e08f580064003e000c00be00c5
:102800003602070020079800f2072000820f5000d0
:10281000e08f580005003c0012f82f00f3ff2f0056
:10282000820f5000838f580009003d000a00e0002d
:102830000300320001003c000201ea0002057800ba
:102840006000b800200798003a0798001900370088
:102850003e0090006100b9001bff0700809fbe0092
:102860000c00be004109dd004811de007208b10015
:10287000ef0107000005be001e01be00c6020700f2
:102880004f01be0061fe0700809fbe000c00be002d
:102890000a01be005dfe07001e01be00be02070069
:1028a0004f01be005afe07008221270013f32300c8
:1028b000b90207000005be002e0090006100b900bb
:1028c00001ff070001f0a2000c01be0050fe07004e
:1028d0000006be000800be00580207000c01be0042
:1028e000ad0207000a01be0049fe0700809fbe003e
:1028f0004a0007002e0590000af0a7000a05ea002a
:10290000050037000800be000801be00a202070053
:102910000004be000c00be000801be000a00a700b3
:102920009d0207000006be000a05d100f5ff3a002f
:102930005e01900002e0a600030037000001be0027
:10294000360007008ffe07000004be004f00be00e7
:10295000550107000801be008f0207003e019000ec
:1029600014020700de0590000bf0a70001f0a200a2
:102970004f06be004f05be004f04be000080fa00a7
:102980000000060025000700f9ff370027000700b8
:102990006000b8000bd0a7000bc0a0000be0a700a0
:1029a0000bc0a2000bc0a70001f82700f0ff370002
:1029b0000df8a300020032001e00070019000700f6
:1029c0000bf8a300eaff32000b30a70001f0a200d1
:1029d000e7ff37000df8a300f9ff3a00f7ff3700d3
:1029e0000801be000b000700e6ff320001003c00ba
:1029f0000df0a2006000b8000df0a700090007006c
:102a0000dbff37000b000700f1ff2700f0ff2f006e
:102a1000d7ff370001000700ac01370001f82300a1
:102a20000000050001f8270000000500200220003a
:102a30000100370010022000106b88000000060023
:102a40006022b800060220000000d0008180d20081
:102a50000482d2008582d2000000a000020252004f
:102a600083825a00030031000202420083824a003e
:102a70000000a1000603e900f3ff3a000000060091
:102a8000efff07000400be0000000600889fbe00a4
:102a90008a9fbe003004be002005be00040444002e
:102aa00085844c0006054d0087854d000898be00c2
:102ab0000a90be000440e10005c8e10006d0e10034
:102ac00007d8e10002003100680040001008e8006b
:102ad0004f05be004f04be0000000600889fbe00e8
:102ae0008a9fbe008c1f7800000678003c04be0060
:102af0002c05be000400540085805c0006015d00ca
:102b000087815d00009ebe00029ebe001000200076
:102b10000440e10005c8e10006d0e10007d8e1006b
:102b2000010039000000eb001c0e10004f06780079
:102b30004f05be004f04be00000006001200fa0060
:102b4000889fbe008a9fbe008c9fbe000205be000b
:102b50000004be00e4b79f00f5b79f0086bf9f004a
:102b600097bf9f000000eb00d0b79f00c0b79f0049
:102b7000b0b79f00a0b79f0090b79f0000067800f5
:102b8000fd032000dfb197004fb0970003814100a3
:102b9000bfb09700e08f510004003d0029000700fe
:102ba0007e805700b9ff07000300370025000700ab
:102bb0007e805700c9ff0700dfb09700e08f50000c
:102bc0000700350014002000050020006033b80025
:102bd00008047200898472000a0573008b857300f3
:102be0000c06e8008d0f5600e6ff3400e08f500021
:102bf00006003d006fb29700ffb297000fbb970031
:102c00009fbb97007e805700a0ff07005fa897003a
:102c1000e00f500004003a001fb49700afb49700d3
:102c20003fb59700cfb597000800be000a01be006f
:102c30004f06be004f05be004f04be000080fa00e4
:102c400000000600cf01de0002817100b2b79f00d4
:102c50004f09de000000400000007100a0b79f0097
:102c60000fb097004f01de008180400081007100ad
:102c700091b79f007faa9700cf20de0000004000a0
:102c80000080700080b79f000800be000a01be00ef
:102c90004f18de000402420000027200f4af9f00f1
:102ca0000804440089844c000a054d008b854d00c2
:102cb0004fb29700dfb297006fb39700ffb3970052
:102cc00000000600881f780018002000881f780088
:102cd0009aff07008f87e9004f0478000000060084
:102ce000801feb0095ff07008f87e90000000600ba
:102cf000889fbe008a9fbe008c1f7800e00f5000a6
:102d0000e08f5800e00f5900e08f59000f003d00a0
:102d10006044b8006055b8000000540081805c0039
:102d200002015d0083815d001c0020000820e1009d
:102d300009a8e1000ab0e1000bb8e1000d003d0078
:102d4000190007000006eb000a0037000006eb0040
:102d5000e00f5200e08f5a00e00f5b00e08f5b0055
:102d600004003d006044b8006055b8000e00070044
:102d70001c002000d3ff0700e00f560006003200c1
:102d80006022b8006033b8000000520081805a0011
:102d900002015b0083815b004f0678004f05be0097
:102da0004f04be00000006000402540085825c004f
:102db00006035d0087835d0000000600889fbe005b
:102dc0008a9fbe008c1f7800e00f5000e08f5800f3
:102dd000e00f5900e08f59000d003d006044b8003d
:102de0006055b8000000540081805c0002015d0065
:102df00083815d001c0020000820e10009a8e1009b
:102e00000ab0e1000bb8e1000d003d0008003700fa
:102e10000006eb00e00f5200e08f5a00e00f5b006d
:102e2000e08f5b0006003d006044b8006055b800cc
:102e30000402540085825c0006035d0087835d0008
:102e4000a7ff0700e00f5600060032006022b8001e
:102e50006033b8000000520081805a0002015b001c
:102e600083815b004f0678004f05be004f04be0013
:102e7000000006000003be00b90007006220e10068
:102e8000020032000600be0005000500e507b100a3
:102e9000f107b20004f023008480700007f0a7005f
:102ea00001f0a00024000500889fbe008a9fbe009c
:102eb0008c9fbe000004be00a90007000800be00f1
:102ec0006420e10048003e005500320072212700d6
:102ed000132b24007f00070047003c000800be00c1
:102ee000c2ec2800e32c2c007800070047003500d6
:102ef0000800be0001f0a1000200200003382300fa
:102f000072000700430035000800be00b2a32a008b
:102f100083fb2300200107000200200003f02300b0
:102f200001f0a70003f0a000b9fc07006b00070048
:102f30000005be0064fd070001f0a2000006be000f
:102f40000200280013f32300130107000801be004c
:102f5000affc0700809fbe000c00be0032082800b6
:102f6000e3952b000c0107004f01be00a8fc0700f1
:102f70000006be000001be0007010700809fbe00e2
:102f80004241250083b8230003010700020020000e
:102f900003e823009efc07000c01be00fe000700b2
:102fa0000006be004f00be00f2f92b00c3d4230080
:102fb000f90007000200200003f0230094fc070042
:102fc0000c01be0091fc07000001be000c00be0019
:102fd000ecfc07000200200003f023008cfc07003b
:102fe00061014500730007004f06be004f05be009b
:102ff0004f04be000000060001f82700000020007a
:1030000022022000126b8800f7ff37006000b80032
:10301000fbff370001f8230000002000f2ff37001b
:1030200009f8a300f0ff32006000b800eeff37009f
:10303000889fbe008a9fbe000003be0048000700b4
:103040008505780082815200020020006220e100a4
:1030500004003a00f307b100040035007718e100de
:10306000040035000600be00140037006000b80000
:103070000f003700f50f2000faff2f008502d10066
:103080000a85d3008301e900fcff3b0081846200d4
:1030900000046500890f7400f2ff32008582ea00a7
:1030a0000a85ea00818462000004650034fd07009f
:1030b00007f0a70001f0a0000081eb000200e00093
:1030c0004f05be004f04be000000060014002000a3
:1030d000e5003700f4ff2f00e30037000001be00d9
:1030e0001f0007000470a70003f0a1006509b100ec
:1030f000160032000d0035006828e100060035009a
:10310000f0ff2f00f1ff27000300e00013003b0059
:1031100001002800000005000000400081804800f8
:103120008502e900fcff3a0008003700f88f4200f2
:1031300002003c008000eb00000005008100d1008f
:103140000080d3008502e800fcff3a000300e000a5
:1031500002003b0060001000e08018000000060044
:10316000c70ade00f107b200f50fb2000800320016
:10317000e1cf4200020032000170a00024000500ef
:10318000810f7000010032000408050044000500b2
:10319000810f700002003a00140005008502e9006a
:1031a0000000400081c04800fcff3b000170a0000f
:1031b000240005000003be00e9ff07006220e100d3
:1031c000020032000600be00000006008502410039
:1031d000e30f20000328e10005003c00a3fe2f00c0
:1031e0000328e10007003d00050020000100370032
:1031f000f50f200020022000106b88006000b8004e
:1032000008003700130020008381520005003d00b4
:103210008100d1000080d3008301e800fcff3a0068
:1032200005002000c72add00f107b200858070008c
:1032300007f0a70001f0a00000000600889fbe0074
:103240008a9fbe008c9fbe000aff0700850478009d
:103250000005be006420e10049003e006220e1005c
:1032600003003200090035000bf8a30044003200cf
:103270000bf8a3000800320010022000106b880039
:10328000f0ff2f00f1ff27003d00370001f82f006d
:10329000000020003a0037003d000700dbfb07007c
:1032a0000006be000a00be00324f200053f3230088
:1032b00088ff0700060034000c00be003400070041
:1032c000d2fb07000006be000a00be000200370065
:1032d0008904e9000c00be002d0007002e00070045
:1032e0002b000700cafb07000001be000c00be0057
:1032f00024fc07000005be000001be0026000700f8
:103300000006be00a2f32300430d2c00c0fb070003
:10331000809fbe000c00be00d2e32700d3f02b003c
:103320001d0007004f01be0016fc07000006be008e
:103330000a01be00180007000a01be00b4fb070026
:103340000006be006148b9005ffc07000005be0032
:1033500032082800e3952b000f0007000c01be0087
:10336000abfb07000006be000a00be0002002800fa
:1033700013f32300080007000c01be00a4fb0700a4
:103380004f06be004f05be004f04be000000060001
:1033900003f0230002000500889fbe008a9fbe0044
:1033a0008c1f78009cfc0700a3fc330003866c0094
:1033b0006450e100240032006420e1002700320064
:1033c0006150e100220032006120e1002100320062
:1033d0008b854200eb07b1000134b800003ab80019
:1033e0000804420089844a00013ab8000030b8005d
:1033f0008880400009014a000400330000004000ba
:1034000081804800020149008b05e900c909dd00ff
:10341000830170000100320013002000c814de0098
:103420004814dd004709de001200b200c808de00c3
:103430000884700052fc070001f0a1000cf0a70006
:1034400001f0a00085fc37006120e10087fc32001c
:103450000801be000200be00f7ff37006150e10026
:10346000fcff3a0081fc3700889fbe008a9fbe00a7
:10347000841f780068fc07004f00780011003300bb
:10348000f0ff2f00838f6c0006003b0004056500f1
:103490000a00a7000800370009f0a600100020006d
:1034a00008003700820f5400838f5c00030039004e
:1034b0001000200001003e000000200009f0a700dd
:1034c0000000ea004f05be004f04be000000e0000f
:1034d000000006008001780002003700b159780032
:1034e0000201e900e00f5100fcff3a000000060075
:1034f00080007800010037008100e8000041eb0007
:10350000914f1100fcff3a000080500000000600bf
:1035100080017800811f7800110009008200d80026
:103520008001fd00cf007800030878000299b900ff
:10353000028150001200980000000600889fbe0023
:103540008a9fbe008c9fbe008e1f78008106780087
:10355000030478000d95b9000a077800e00f5500c4
:1035600043003200e08f560042003200000678002f
:10357000c800900068009000808f5000040039005f
:103580000800780068000700e00f500026003500b2
:1035900000402000980560000a0032000a0178000f
:1035a000a10020000c0078004d0007008005780085
:1035b000e08f550003003200e104160089844500c5
:1035c000010037008a04780048009000e80090006d
:1035d00080805000898f5000020031008104780003
:1035e0008005eb00090178008c007800b9ff070026
:1035f000090555004800900009004000400498006b
:10360000e08f55000400320008007800180307001e
:10361000e00f500004003a00e00f550002003200b5
:1036200009064600d2ff3700008020001800600025
:1036300002003200080078000d03070000c02000df
:1036400018006000020032004800900060049800fa
:103650000a05570000017800811f78001100090059
:103660000d85d8000001fd00cf0078000100370073
:103670000a017800020078004f0778004f06be006c
:103680004f05be004f04be0000000600889fbe002c
:103690008a9fbe008c1f7800000678000205be00dd
:1036a0000404be000401be000a00be0077fb070050
:1036b000008ebe000801be00f6050700000255009e
:1036c00081825d0024069800350698000c00780081
:1036d0004f0678004f05be004f04be0000000600f4
:1036e0000400370090cf1000050032000000e80011
:1036f0000201e900e00f5100faff3a0002007800f1
:103700000000060003003700e04f510005003200c2
:103710000000e80010417800814f5100faff3a00a4
:103720000000060000000500889fbe008a1f780088
:1037300000047800c8009000680190000000eb00d1
:10374000828f50003c0039001800780022002900c8
:1037500002016000e20f5100070032000120240046
:10376000e00f500001003d0001202000008c70009f
:103770000080eb00300037000200260002006000ed
:10378000820f500009003a0038009000808f5000ee
:103790000600390008007800b502070080007800b4
:1037a0000080eb00e08f500023003a0018057800fd
:1037b00000c020000000650018003a00a804900036
:1037c0006002200008004000808f540013003a007f
:1037d00000202000a403070020049800e00f500000
:1037e00005003a0029049800490498008904e8007b
:1037f00039049800080037000a60a0000a0c78001d
:10380000400498000120200080804000310498008e
:10381000400c9800500c98003b02070028009000d4
:1038200050049800380090006004980000002600c2
:10383000180c70000000eb004f0578004f04be002c
:1038400000000600889fbe00800478006684400067
:103850001800d0004500de00f27f2000820f5000eb
:1038600010003a00800ceb00180478006f0164002f
:10387000200020001b003a0021019000e00f5100c1
:1038800018003a0011019000e00f510015003a00b5
:1038900010002000910f11001200320020002000c3
:1038a00010003700e00f500004003a0001007800db
:1038b000bc020700e00f500008003c00f2002800a6
:1038c0001801610001fe2300010c710021c02f00ce
:1038d000810c40000080eb0002003700800ceb0000
:1038e0000000eb004f04be00000006004f02b000d5
:1038f000889fbe008a9fbe008c9fbe008e1f7800ee
:103900000006780080c5b30080cf50000a00320066
:103910007740400080cf50000a00320069404000ec
:1039200080cf50000b00320050e5200080bf9f0088
:10393000ae0020000a00370042e4200082bf9f0052
:103940000600370053e5200083bf9f008e00200053
:103950000300370054e5200084bf9f000e012000c3
:103960003c02be002c03be000605be000404be00df
:1039700040c6b30080cf50000300320065404000d5
:1039800080cf50000b003a00e00f5200e08f5a0049
:10399000e00f5b00e08f5b0006003d006044b80074
:1039a0006055b8000404540085845c0006055d0081
:1039b00087855d00e80f570003003200f00f5700c5
:1039c0003a003a00020037003000200001003700c2
:1039d00040002000e00f5400e08f5c00e00f5d002d
:1039e000e08f5d0004003a00dc0890008d012000ab
:1039f000e08f5000060032008e00e90088806000f1
:103a00008fba9700e5c07800f1e79f007d012000a4
:103a1000800078008100e900050033008b05d100ab
:103a20000a85d3008984d3000884d300f9ff3700c6
:103a3000089ebe000a96be008e00e9001100370005
:103a40008d06e900048160008fb997006344790016
:103a500003fd2f008f81410088f17e000001780076
:103a60000201e900050033008783d1000683d300fb
:103a70008582d3000482d300f9ff3700049ebe0084
:103a80000696be003c02be002c03be00e00f5200b2
:103a9000e08f5a00e00f5b00e08f5b00a100340074
:103aa000e08f5600e6ff3c009e003700ac609000bf
:103ab00080c6b30080cf50000b00320006003c00ef
:103ac000e0cf5000080032006640500080cf500028
:103ad00058003a0004003700c0c6b30080cf500041
:103ae00054003a002a003700e00f540004003a0066
:103af0005c0890008d012000e00f500007003200ac
:103b0000110009000e84d8008000fd008fb99700d5
:103b100063407800f0e79f007d01200000027800fc
:103b2000811f7800110009000e84d8000002fd00fa
:103b3000cf0078000c003700110009000e02d800f9
:103b4000000178008d06e9000e90b90000005200d7
:103b50000fba9700e442780004fd2f000f024200e4
:103b600005f27e0002027800e00f520002003200ef
:103b7000e08f5600f0ff3c00cfa2de000503780086
:103b800086037800049ebe000696be0065003700de
:103b9000e00f5400e08f5c0004003a005c089000e5
:103ba0008d012000e00f5000070032006171b90064
:103bb0000800be00b2fb07000fb997006241780011
:103bc000f2e79f007d0120006175b9000a01be0087
:103bd0000800be009afb07000b0037000a01be0078
:103be0000800be0029fa07008d06e90000f1b900bf
:103bf000020154008fb997006342790003fd2f0042
:103c00008f81410084f17e000004be00e00f50006f
:103c1000e08f580002003200e08f5600efff3c00ba
:103c2000088ebe004fc8de002006980030069800bf
:103c30003c003700e00f5400e08f5c00e00f5d00b7
:103c4000e08f5d0004003a005c0890008d012000c8
:103c5000e00f50000b0032000e027800cfa2de0011
:103c600005037800860378000800be000a01be0044
:103c70001bfc07008fba9700e5427800f5e79f002c
:103c80007d0120000e007800cf80de000101780069
:103c900082017800c0b79f00d1b79f00e2b79f00b4
:103ca000f3b79f000203be000002be000800be0082
:103cb0000a01be0003fc07000f0037004fb2970057
:103cc000dfb297006fb39700ffb397000800be0004
:103cd0000a01be0006fc07008d06e90000f2b900eb
:103ce000040454000fba9700e4427c0004fd2f0046
:103cf0000f02420005f27e00009ebe000296be004a
:103d00003c04be002c05be00e00f5400e08f5c00b8
:103d1000e00f5d00e08f5d0002003400e08f560090
:103d2000e6ff3c00e80f570010003a000c1090002e
:103d3000680060000d003200f78f560006003e005c
:103d400008fd2f000f044400e8c07e0000c3b3004c
:103d500080cf5000050032008d06e90002c3b30099
:103d600001fd2f008f80400082f07e0078811600d8
:103d7000120e98006c00900003fd2f008f8141000f
:103d80008d804100d3fd07001c089000dc089000e6
:103d9000810f500006003d0000805000000e98008a
:103da0000c1090000040a100001698000f00370092
:103db000e08f50000d003d008c109000f4806000fa
:103dc000f08f500009003a007c099000fc00900040
:103dd000810051000c09900082805000008050004a
:103de0004240a90001003400000e98004f077800ff
:103df0004f06be004f05be004f04be004f02b1008b
:103e0000000006000400fa00889fbe008a9fbe00e2
:103e10008c1f78000004780001067800f80d9000ef
:103e20007800900080855500080890008085550036
:103e30001808900080855500a80c900089855500d1
:103e4000b80c900089855500c80c900089855500f4
:103e50000002220090bf9f0000032300a0bf9f002c
:103e6000081090006400600015003a00e08f5500d3
:103e7000130034000b0578008a047800e20f550027
:103e80000100360029002000c801900009017800d7
:103e9000ee80570058009000030001005004980085
:103ea000e00f50008c0032006808900009004000cc
:103eb000600c9800090555004240a900eeff3c0047
:103ec00078019000e00f51000c003400c801900010
:103ed0008c00780058009000030001005004980006
:103ee0008080eb00e00f50007c003200e80890007a
:103ef0007800900000804000600c9800880c9000d2
:103f0000e08f54001100340009057800e28f54005e
:103f1000010036002a002000c80190000a01780044
:103f2000ec805700580090000300010050049800f6
:103f3000e00f500068003200680890000a0040005e
:103f4000600c98008a845400edff37001809900037
:103f5000e00f51000c003400c8019000e800900010
:103f60005800900003000100500498008080eb008e
:103f7000e00f500059003200e80890001808900047
:103f800000804000600c9800a80c9000e08f540066
:103f90001100340009057800e28f5400010036005a
:103fa0002a002000c80190000a017800ec80570028
:103fb000580090000300010050049800e00f5000ea
:103fc00045003200680890000a004000600c98002c
:103fd0008a845400edff370038099000e00f51004b
:103fe0000e003400e8009000180890008080400027
:103ff000c801900058009000030001005004980090
:104000008080eb00e00f500034003200e8089000a0
:104010003808900000804000600c9800c80c9000a8
:10402000e08f54001100340009057800e28f54003d
:10403000010036002a002000c80190000a01780023
:10404000ec805700580090000300010050049800d5
:10405000e00f500020003200680890000a00400085
:10406000600c98008a845400edff3700881090009f
:10407000e4806000190032008000eb00818f550061
:10408000160034008b04780009057800e28f540094
:10409000010036002a002000c80190000a017800c3
:1040a000ee80570058009000030001005004980073
:1040b000e00f500008003200680890000a0040003d
:1040c000600c98008a8454004240a900eeff3c0036
:1040d0008000eb00010037008080eb0001007800d9
:1040e0004f0678004f05be004f04be000080fa0066
:1040f00000000600010878000000060000122200ff
:104100009a00070000000600881f7800a8fd27001d
:104110000040eb00984f100003003a00f7ff070043
:1041200020c0b300004c78004f0478000000060067
:10413000889fbe0000047800080078004c0007004b
:1041400080047800000420001800600002003200a3
:1041500028009000e00007000000eb002004980019
:1041600038409000e04f5000050035000000fb0093
:1041700073010700e00f5000010032008084eb0063
:1041800018109000e00f500008003200a80107004e
:10419000e00f5000010032008084eb001810900006
:1041a000cd0007000000eb0010149800000820006c
:1041b00018006000110032006011b800c4dd20005a
:1041c000020041008380490000004200900f14006b
:1041d00002003a000008eb000500370061014100d1
:1041e000e0814900e70f5100e08f5900f4ff3600ed
:1041f00008007800b80007000e003700000c7800b7
:1042000000c0eb003044980061022000888040002c
:10421000210498004104980051049800410c980032
:1042200061049800510c98007104980076004400d5
:10423000000c9800090078004f04be000000060042
:10424000889fbe0078002000c9dd20000800d00053
:1042500069007800e00f500001003200b4ff070051
:104260000804e900f9ff3b004f04be00000006000f
:10427000889fbe008a1f780000047800e00f540079
:104280000e003a0088047800cadd20000900d00042
:104290006a007800e00f500004003200f4ff0700cd
:1042a000e00f500001003d000084eb008904e800ad
:1042b000e78f5400f5ff340028003700000022008b
:1042c0001800600024003200a80490000f0037009e
:1042d00009015100384090000000fb00890078007f
:1042e00022010700e00f500007003c00280090006a
:1042f0004004980060049800500c98001890a000aa
:104300000084eb00150037008084440048019000d1
:10431000828f5400eeff390028009000400498007e
:104320009800780002c020000281600001003a007d
:1043300038009000020024008280600003003200f8
:10434000600498000004eb0004003700500c980053
:1043500001047800010037000004780008007800ac
:104360004f0578004f04be00000006000100200049
:10437000e08f50000a00320002008000e00f510080
:10438000070032000201e90002008800030020005b
:1043900002014100838149000100800080307900e2
:1043a00000000600e60040009101780006002800a9
:1043b00006836100ef81610083087800120020000d
:1043c0000f003a00a0019000e08f51000c003a006d
:1043d00090019000e08f510009003a00908f110089
:1043e00007003a003900370094087800130a780073
:1043f000900978000508780070015100020037002c
:10440000640240008081e80091027800e08f520051
:10441000f5ff32001200370094037800cf3bde0036
:10442000858242008588730093037800cf3bde00cd
:104430009402780085824200058a73009303780015
:104440008783430090027800cf2ade0085897300bd
:1044500090027800058842000201e900020037005e
:10446000640240008081e80091027800ef8f5200e2
:10447000e9ff36000f00370094037800cf3bdd00e2
:104480009002d1000588730093037800cf3bdd00d4
:104490009402d100058a730091037800cf3bdd00c0
:1044a0009302d100858973009108d1000201e800d0
:1044b000020037000082e800e40140009102780029
:1044c000ff8f5200ecff3e00ef88620091087300fe
:1044d0000200780000000600e00f50002f003200bc
:1044e000c0017800e38f51002c003600e1806100ac
:1044f0002a003a00a1fe8300e08f50000200320043
:10450000810f50000400310011009800a0fe8b00c4
:10451000160037008200780011019000e00f510072
:1045200002003200800f5100faff390011027800ba
:1045300084824000850f500018003900808f52009f
:1045400003003a00830842000100780007003700aa
:10455000e00f51000300320083014000830f51003f
:104560000e00390012009800900098009000900012
:10457000e08f50000900320010014000828f50008f
:1045800006003a0022fd27000009eb001001780028
:1045900011084100910090001100980000000600f1
:1045a000889fbe000004780091fe8300e08f5000d9
:1045b00002003200010078000d003700a1fe8300e8
:1045c00040fd270004003700910f540024003600fe
:1045d0000180e80091009000e08f5000faff3a005f
:1045e00010003700920f54001d0036000280e800d2
:1045f00010017800e00f5100faff3a001101780035
:10460000a1fe830040fd270004003700910f5400f5
:10461000130036000180e80091009000828f500066
:10462000faff3a00b9fe8300888f54000100310080
:10463000880478000900780035000700e00f50007a
:1046400004003a00888f5400050032008904d1002c
:10465000f5ff3700091878009fff0700d2ff3700e9
:104660004f04be0000000600881f7800800078001c
:10467000638440000800a1000000eb00810f54009b
:1046800021003600e30f540001003e0048002000e6
:1046900008007800c2ff0700e00f50001a00320047
:1046a000900078009101780064815100880f5100da
:1046b0000300310011019000020878000700370064
:1046c00008814000020878009101900013019800d1
:1046d0001001780011091400880878001000780093
:1046e000e00f50000600320010019000e00f510072
:1046f000020032000080e80001003700020078006c
:1047000090fe8b000180e8004f0478000000060056
:10471000800078000000eb00808f5000050034001e
:10472000010078004b000700e10f400001003a0053
:104730000000eb000000060000c0da0000000600e8
:104740000a00fa0011002000b1bf9f00c0bf9f0007
:104750006a805700f8ff07004fb897000080fa0002
:104760000000060000c0da00000006000a00fa009f
:10477000e20f500021003e00e0fe8300e10f5000f8
:10478000060032008523200044232000232320003c
:1047900000232000e08f520004003a008522200010
:1047a00044222000232220000022200006002800ae
:1047b0009003630002003a00870a78001008730033
:1047c000004020001300600001003a0013a0a00088
:1047d0000200780006003700930278000510b2004e
:1047e000fdff3200b102fb00050a78000000e9007d
:1047f000e00f5000f8ff3a000800370033002000b7
:10480000b3bf9f00c0bf9f00d1bf9f00e2bf9f000a
:104810006a805700d3ff07006fb997000200780045
:104820000080fa000000060000c0da000000060068
:104830000a00fa0051002000b1bf9f00c0bf9f00d6
:104840006a805700f8ff07005fb897000080fa0001
:1048500000000600889fbe0080047800f0fe830000
:10486000e00f500004003a000e0007000084eb0047
:10487000e00f500008003500f8fe8300e08f540080
:10488000050032000900440006000700e00f500058
:1048900001003d000084eb00080078004f04be00da
:1048a00000000600e00f500004003a0001e820007c
:1048b000f1fe8b0080007800060037008080eb005e
:1048c00002f82000820f500002003e00f0fe8b0034
:1048d0008000eb0001007800000006008f1fd1006f
:1048e000ef0107008f87e9000000e00000000600ec
:1048f000809feb00ea0107008f87e9000000e000dd
:10490000000006002800fa00889fbe008a9fbe00b3
:104910008c9fbe0003866b00800007006400e100ee
:10492000440032006408e1004a0032006100e10006
:10493000460032006108e10049003200ec06470001
:104940006000b8003d02be003d03be00f486570083
:104950006011b8003d04be003d05be007d0320008f
:104960000b0037000000a0008d06e90013003200a4
:104970000402420085824a0006034b0087834b00f5
:104980000000400081804800020149008381490005
:104990000802520089825a000a035b008b835b0085
:1049a000f0ff3b000802420089824a000a034b00e4
:1049b0008b834b008d06e900edff3a008482720084
:1049c00086827200f707b20087827200010032000f
:1049d000150020001e0490003e0b900006035400ba
:1049e000e63fb0000368a300070032000000a70004
:1049f0000500a0008301d1000281d3008180d30093
:104a00000080d3000603e8008301d1000281d300b7
:104a10008180d3000080d3000002eb000482d2002a
:104a20001200070003f0a1000cf0a70003f0a000a3
:104a30004e003700640247006408e100480032007d
:104a40003400be003401be00f6ff37006108e1000b
:104a5000430032006011b8006000b800f1ff370079
:104a600003ff270002002000fbff37001800200092
:104a700057002000080453000d003d0006002000f0
:104a800097fc2f000740e1001e0034008482720072
:104a9000610260008301d1000281d3008180d300d4
:104aa0000080d3000804e800f8ff3a004700200027
:104ab0006104600005047400040464000d00320009
:104ac00061004000e080480060014900e081490049
:104ad00003b8a500070032000603e8006538e100ce
:104ae00004003a008301d1000281d3008180d30009
:104af0000080d300f87f20000830e100030035007b
:104b0000080378006000b8006011b8004433dd008d
:104b1000f300b20083017300000006006804470040
:104b20000294be000094be00fc0447008694be00c0
:104b30008494be0009007800a201070008007800f4
:104b4000a001070099007800814f70000b003b0026
:104b50000800be007b0107004f00b10003003700d2
:104b6000f3ff2700f2ff2f006110b9004f06be00cf
:104b70004f05be004f04be000080fa000000060092
:104b80008103780076f907000001be006000b800dc
:104b90000478a30013003a006220e10015003e00f3
:104ba0000d0039008301d1000281d3008180d30040
:104bb0008301d1000281d3008180d3008301d10021
:104bc0000281d3008180d3000538b000c42add0003
:104bd000f300b2008381720007f0a70003f0a00089
:104be00000000600f3ff2700f2ff2f006110b9005c
:104bf000fbff370003ff2700f7ff37001400fa0020
:104c0000889fbe008a9fbe008c9fbe000004be002d
:104c10000205be00680047000a90be000890be0072
:104c2000680107000070a7000bf0a10030432000ce
:104c30009e02900080825200b0fe2f000028e1000a
:104c400011003d00b0fc2f000028e10015003400e9
:104c50001e0990008e0890007e0090000501b000b3
:104c60000201d1008180d3000080d3008502e800da
:104c7000fbff3a000b00e000bcff3b0060001000af
:104c8000e0801800b9ff3700f0ff2f00f1ff270088
:104c90000b00e000b5ff3b000100280000002000f1
:104ca000b2ff37006000b800b0ff37004f89de0068
:104cb000820178006a0137002800fa00889fbe0050
:104cc0008a9fbe008c9fbe0003866b0093ff070087
:104cd0000028a30064003a000128a30067003a00fe
:104ce0000008a30062003a000108a30065003a0032
:104cf0001e009000be08900081064000ed3fb1000c
:104d0000f4805700ee019000111ab8008e0990004f
:104d1000311bb8009e099000311cb800511db8002d
:104d2000f485570046000700fe0190003a00070096
:104d30008b85e8003e0007008e09900040000700c8
:104d4000ee019000340007008b85e8003800070072
:104d50008e099000400007009e0990001b18b800c3
:104d6000890440000a854800fe01900034000700d5
:104d70008b85e80038000700ee0190003000070046
:104d80008e0990001b18b800890440000a8548006d
:104d90000a98a30008003a000402420085824a00f3
:104da00006034b0087834b0008044c0089844c00a9
:104db0000a054d008d06e9008482720085027300a9
:104dc0004c3add008502720001003200150020001f
:104dd000443ade001400b2004538de00cb45dd0069
:104de0000b007000c540de00cb4ddd008b807000f5
:104df0004549de00cb55dd000b017100c551de00d9
:104e00000d03780019ff070003f0a1000cf0a700c4
:104e100003f0a00055ff37001b18b80085024000c2
:104e200006834800e0834b0060044c000700370015
:104e30001b18b8000603400087834800faff3700bc
:104e40001b18b8008703400008844800e0844c0029
:104e500060054d00000006001b18b8000804400063
:104e600089844800faff37000108a3003cff3a009c
:104e70005800be005801be00e3ff37000008a30041
:104e800037ff3a0009047800f9ff370007f0a20065
:104e900006003700020ab900001bb9000200b80082
:104ea0008100420081004300000006002800fa0053
:104eb000889fbe008a9fbe008c9fbe0007067800b8
:104ec000878669000c003b000304780087047800a3
:104ed00008f0a10009f0a100840f5000858f580050
:104ee000860f5900890f5c00030033000cf0a2000c
:104ef00001003a000cf0a10008ff07006400e10087
:104f00005f003200780147006408e1006100320070
:104f10006c014700748557003200be001201be00cc
:104f20003a04be001a05be001e039000be0a90009f
:104f30008503530006003d000004fd008104fd00d0
:104f40000205fd008305fd008703ea0005037800e4
:104f50000df8a3000400320060041400e0841c007b
:104f600060051d00e0851d006022b8007d03200063
:104f70000d38e1008006eb000b0039004433dd0002
:104f8000f300b2008301730039003700848272009d
:104f90000d027800e10664008b85d1000a85d300fc
:104fa0008984d3000884d3008703e900f7ff3b001e
:104fb00008004000898048000a0149008b814900af
:104fc00004003b0060001000e08018006001190040
:104fd000e08119000358a300090032008d8272009d
:104fe00084827200610260008301d1000281d300db
:104ff0008180d3000080d3000603e8001b00370047
:105000000348a30017003a000600e0001700340030
:105010000603e9000d00a30000004800818048005d
:1050200002014900838149000348a3000f003a00b0
:105030000600e000090034000603e900000040001b
:1050400081804800020149008381490001003a0043
:105050000003eb000348a300f5ff32006022b80014
:105060000200370084827200618266007ffe0700c2
:1050700003f0a1000cf0a70003f0a000bbfe370076
:10508000640147006408e10002003a000df8a30043
:10509000b3fe3a003200be001201be00b3fe37007c
:1050a000889fbe008a9fbe008c9fbe000404be0085
:1050b0000605be00809fbe00829fbe002f00070035
:1050c000040678000800be000a01be002b0007009d
:1050d000840678004f03be004f02be008d4f76005d
:1050e0007fb0970013003300f0ff2f008b8f6b0011
:1050f00006003b000d0666000c00a7000a00370002
:1051000007f0a600100020000a003700880f5200a8
:10511000898f5a008a0f5b008b8f5b000300390078
:105120001000200001003e000000200007f0a70052
:105130000000ea004f06be004f05be004f04be004f
:1051400000000600e48240001078a300070032004f
:10515000640240001178a3003400be001401be00b8
:10516000040032000330a700000006003500be0036
:105170001501be000330a0000000060005ff270057
:1051800005826100070032000428e10001003200be
:10519000240005000600070001003a004400050055
:1051a0000408050002000700f9ff3a00140005009a
:1051b0006f826100810270008502710085027200b9
:1051c00000000600800078005002be005003be00c0
:1051d0004439de00f700b200f37f200003016100d4
:1051e000090032000218e10016003a008501720041
:1051f00083017300838173000008200015003a00ca
:105200004000200013003700850172008301730005
:105210008381730005003a0004a8be0006a8be0002
:10522000100020000b0037000201e90004024200d8
:1052300085824a0006034b0087834b000748a30082
:10524000f9ff32000740a00004a8be0006a8be0077
:1052500020002000800098009200980000000600c6
:10526000889fbe00830478000300e0002c00350016
:1052700003003c000082700004027100260032002e
:1052800036432000c50020008383cf000a00390088
:105290000541b1008283cf00070039000541b1000c
:1052a0008183cf00040039000541b1008083cf0025
:1052b000010039000541b10085c353006022b800e8
:1052c000120032000a003b0084827200610260001a
:1052d0008301d1000281d3008180d3000080d300fc
:1052e0000603e8008743e800f7ff3a0007003700ad
:1052f000000040008180480002014900838149008c
:105300000603e9008743e900f9ff3a00d7fd0700eb
:1053100009f0a70003f0a0004f04be000000060043
:1053200060001000e080180060011900e0811900a1
:0c533000d3ff3b00033e2c00f7ff3700ca
:020000040000fa
:10533c00796100007746000062560000657200003b
:10534c00742c000020700000697400006368000079
:10535c004662000056650000727400002c200000ac
:10536c00726f00006c6c0000466200005665000015
:10537c00727400002c200000796100007746000058
:10538c00624800006f720000697a00002c20000057
:10539c0070690000746300006846000062480000f9
:1053ac006f720000697a00002c200000726f000000
:1053bc006c6c000046620000486f000072690000cf
:1053cc007a2c0000206f000075740000312c000056
:1053dc00206f000075740000322c0000206f00005c
:1053ec0075740000332c0000206f000075740000f1
:1053fc00342c0000206f000075740000352c000068
:10540c00206f000075740000362c0000206f000027
:10541c0075740000372c0000206f000075740000bc
:10542c00380d00000a000000746900006d65000072
:10543c002c200000636e0000746c00004d6f0000a7
:10544c006465000059770000507400006368000028
:10545c002c200000636e0000746c00004d6f000087
:10546c0064650000526f00006c6c00002c20000082
:10547c0061630000636500006c4f00006e2c00003f
:10548c00206c0000617500006e6300006843000032
:10549c006f7500006e7400002c2000006c61000021
:1054ac00756e000063680000656400002c2000002d
:1054bc00746900006c7400005f6300006f7500007d
:1054cc006e7400002c200000617000006f670000fb
:1054dc0065650000202c0000207200006f6c00003d
:1054ec006c4100006e6700006c6500002c20000011
:1054fc00726f00006c6c000044650000766900005f
:10550c0061740000696f00006e2c000020760000b2
:10551c0065720000745800002c20000076650000b5
:10552c0072740000592c0000207600006572000097
:10553c00745a00002c2000006163000063580000c6
:10554c002c20000061630000635900002c20000037
:10555c0061630000635a00002c2000006779000092
:10556c00726f0000582c0000206700007972000058
:10557c006f5900002c20000067790000726f00004a
:10558c005a2c000020000000544900004c5400002c
:10559c00204c000049530000542c000020740000e3
:1055ac00696c0000742c0000206200006561000032
:1055bc00726900006e6700002c200000582c00005f
:1055cc00205900002c200000737400006172000050
:1055dc0074200000746900006d6500002c20000030
:1055ec00656e000064200000746900006d650000a9
:1055fc000d0a0000544900004c54000020440000e7
:10560c00454600002c20000025690000202c0000dd
:10561c0020250000692000002c20000025690000d6
:10562c00202c000020250000692000002c20000008
:10563c00252e000031660000202c000020250000e3
:10564c002e310000660d00000a00000054490000d5
:10565c004c54000020440000454600002c20000063
:10566c00252e000031660000202c000020250000b3
:10567c00692000002c20000025690000202c00006f
:10568c0020250000692000002c200000252e0000a1
:10569c0031660000202c0000202500002e31000077
:1056ac00660d00000a0000004d610000782000002b
:1056bc00526f00006c6c00003d200000256900005a
:1056cc0020640000656700002c2000004d61000084
:1056dc0078200000526f00006c6c0000205200001b
:1056ec0061740000653d0000202500006920000069
:1056fc0064650000672f00007365000063200000e4
:10570c0025690000207500007365000063730000bc
:10571c000d0a00004f6600006673000065740000ff
:10572c00732c00002041000063630000656c0000d6
:10573c003a2000002c200000256900002c200000dd
:10574c00256900002c200000256900002c20000099
:10575c0047790000726f00003a2000002c200000f6
:10576c00256900002c200000256900002c20000079
:10577c00256900000d0a0000003400002f320000e3
:10578c00372f00003230000032330000007200006e
:10579c006576000032330000612c00002077000099
:1057ac0069670000676c0000652c00002066000033
:1057bc006c690000676800007420000072650000ce
:1057cc0061640000790000004a6900006d2000004f
:1057dc00427200006432000000250000732c0000af
:1057ec0020250000732c000020250000730d000004
:1057fc000a470000797200006f20000072610000ff
:10580c006e67000065200000256900002044000040
:10581c00505300002c200000636100006c690000f4
:10582c0062200000253600002e340000660d0000ba
:10583c000a4d000061780000546900006c7400008f
:10584c003d200000253500002e31000066200000b0
:10585c0064650000672c000020540000696c000097
:10586c007452000061740000653d000020250000aa
:10587c00352e000031660000206400002f730000fc
:10588c002c200000505700004d3d00002569000001
:10589c002075000073650000637300000d0a0000a2
:1058ac0000250000693a0000253200002e3200006d
:1058bc00692e0000252e0000316900002c25000007
:1058cc00692c0000256900002c250000692c0000c3
:1058dc00256900002c250000692c000025690000ba
:1058ec002c250000692c0000252e000032660000db
:1058fc002c250000692c0000256900002c250000d7
:10590c00692c0000256900002c250000692c000082
:10591c00256900002c250000692c0000252e0000b4
:10592c00326600002c2500002e320000662c000090
:10593c00252e0000326600002c250000692c00008a
:10594c00256900002c250000692c00002569000049
:10595c002c250000692c0000256900002c25000076
:10596c00692c0000256900002c250000692c000022
:10597c00256900002c250000692c00002569000019
:10598c002c250000692c0000256900000d0a000080
:10599c00000000002450000053520000463100006b
:1059ac00303000002c3000002c3100003932000067
:1059bc00303000002c3800002c3100002c3000005e
:1059cc002a330000390d00000a0000008600000098
:1059dc00004b000000080000010000000000000067
:1059ec0009000000d70c0000d60c0000d90c0000f8
:1059fc00d80c0000df0c0000de0c00006d0b00006a
:105a0c006c0b00006b0b00006a0b0000d40c000048
:105a1c00d40c0000d40c0000d40c0000d40c0000fa
:105a2c00d40c0000d40c0000d40c0000d40c0000ea
:105a3c00d40c0000d40c0000d40c0000610b00004e
:105a4c00600b00005f0b00005e0b0000650b00009c
:105a5c00640b0000630b0000620b0000d40c000010
:105a6c00d40c0000d40c0000d40c0000690b000016
:105a7c00680b0000670b0000660b0000d40c0000e4
:105a8c00db0c0000da0c0000e10c0000e00c000064
:105a9c00d40c0000d40c0000dd0c0000dc0c000069
:105aac00d40c0000d40c0000d40c0000d40c00006a
:105abc00d40c0000d40c0000d40c0000d40c00005a
